:0B020A00012200C102042A00000000D5
:0A018700EF1FAC0670011E4C60175C
:10019100000000750802750952750A68D50AFDD577
:0501A10009FAD508F782
:0301A60080DF22D5
:100156008F0B8E0A8D098C0878181201E48F2EAF4A
:100166000BAE0AAD09AC0878101201E48F2FAF0B65
:10017600AE0AAD09AC0878081201E48F30850B3160
:010186002256
:09025300C2A5D2A4D2A3C2A222CA
:0B023300C2A5D2A4C2A3D2A202018780
:0B023E00D2A5C2A4D2A3C2A202018775
:0D021900D2A5C2A4C2A3D2A2C202020187D4
:1000BA001201A91201F81202497DFF7C007FFF7E1E
:1000CA00001201CA1202537DFF7C007FFF7E0012DC
:1000DA0001CAE580543C600E7F5A7E001202197FE5
:1000EA00B47E001202330522E522D394024003E4CF
:1000FA00F522AF2DAE2CAD2BAC2A120156AF2E1223
:10010A00025CAF2F12025CAF3012025CAF311202F6
:03011A005C80B155
:03002300020226B0
:0D022600309802C298309904C299C201328A
:1001A90053877F759850438E40538EFE53890F4372
:1001B9008920758BB8758DB8C2ABD28ED2ACD2AF4F
:0101C9002213
:08025C002001FDD2018F99225F
:03021500010C00D9
:03002B0002011DB2
:10011D00C0E0C0F0C0D075D01875BC00050CE50C62
:10012D00D394024003750C00AFBDEF75F004A4FF2E
:10013D00AEF0E5BE54037C002FF52BEC3EF52A7591
:09014D00BC89D0D0D0F0D0E03222
:1001F800759D02E4F5BD43A82075BC897F02FE0207
:020208000003F1
:10000300EF1FAA0670011E4A60107C277D10ED1DAC
:0A001300AA0470011C4A60E880F4A2
:01001D0022C0
:0A02490075D90A75DB4275DA42220E
:1001CA00E4F5D8F5E9F5F9C374FF9FF5EAF5FAC342
:0A01DA0074FF9DF5EBF5FBD2DE2269
:0300000002002ECD
:0C002E00787FE4F6D8FD75813102007582
:1001E400E86010ECA2E713FCED13FDEE13FEEF1331
:0401F400FFD8F0221E
:10003A000200BAE493A3F8E493A34003F68001F222
:10004A0008DFF48029E493A3F85407240CC8C333C7
:10005A00C4540F4420C8834004F456800146F6DF96
:10006A00E4800B010204081020408090020AE47E1A
:10007A00019360BCA3FF543F30E509541FFEE4938B
:10008A00A360010ECF54C025E060A840B8E493A352
:10009A00FAE493A3F8E493A3C8C582C8CAC583CA7D
:1000AA00F0A3C8C582C8CAC583CADFE9DEE780BE35
:0102180000E5
:00000001FF
